:100000000C9463000C948B000C948B000C948B006C
:100010000C948B000C948B000C948B000C948B0034
:100020000C948B000C948B000C948B000C94E104CA
:100030000C948B000C948B000C948B000C948B0014
:100040000C943F040C948B000C94AF040C94890422
:100050000C948B000C948B000C948B000C948B00F4
:100060000C948B000C948B000000000024002700EF
:100070002A0000000000250028002B0000000000DE
:1000800023002600290004040404040404040202DA
:100090000202020203030303030301020408102007
:1000A0004080010204081020010204081020000012
:1000B0000008000201000003040700000000000027
:1000C0000000A205200811241FBECFEFD8E0DEBF3C
:1000D000CDBF11E0A0E0B1E0E0EEF5E102C0059097
:1000E0000D92A638B107D9F722E0A6E8B1E001C029
:1000F0001D92AF35B207E1F710E0C2E6D0E004C0D0
:100100002197FE010E94D808C136D107C9F70E9485
:1001100013060C94E30A0C940000CF92DF92EF9246
:10012000FF92DC01A03282E0B8070CF03EC0B7FDC0
:1001300006C0A53BB1052CF0A4EBB0E002C0A0E0E6
:10014000B0E08091590228E830E06901C81AD1086E
:1001500087FDD394CC0CDD1CCC0CDD1C0D2C000CCD
:10016000EE08FF0880915A0228E532E0281B310989
:1001700087FD3395220F331F220F331FA901330F41
:10018000660B770B9A01AB012C193D094E095F09EB
:100190000E945C0824EB30E040E050E00E9432080E
:1001A000C20ED31EE41EF51ED601909158029C305B
:1001B00098F58091590248E850E0481B510987FDA5
:1001C0005395440F551F440F551FA417B5078CF0C6
:1001D00080915A0228E532E0281B310987FD3395CA
:1001E000220F331F220F331FAD012A173B070CF4D8
:1001F000A90142505109440F551F2FB7F894892F78
:1002000090E0FC01EE0FFF1F8E0F9F1FFC01E35DCE
:10021000FD4F528341832FBFFF90EF90DF90CF902F
:100220000895833081F028F4813099F08230A1F074
:1002300008958730A9F08830B9F08430D1F48091E6
:1002400080008F7D03C0809180008F778093800035
:10025000089584B58F7702C084B58F7D84BD0895DD
:100260008091B0008F7703C08091B0008F7D809324
:10027000B0000895CF93DF93282F30E0F901E255C5
:10028000FF4F8491F901E656FF4FD491F901EA57E7
:10029000FF4FC491CC2391F081110E941101EC2FEA
:1002A000F0E0EE0FFF1FE458FF4FA591B491EC91E1
:1002B000ED2381E090E021F480E002C080E090E056
:1002C000DF91CF9108951F93CF93DF93282F30E0D4
:1002D000F901E255FF4F8491F901E656FF4FD491A1
:1002E000F901EA57FF4FC491CC23C1F0162F8111B9
:1002F0000E941101EC2FF0E0EE0FFF1FEE58FF4FB0
:10030000A591B4919FB7F894111104C08C91D09528
:10031000D82302C0EC91DE2BDC939FBFDF91CF91FD
:100320001F910895CF93DF9390E0FC01E656FF4FB5
:100330002491FC01EA57FF4F8491882361F190E0FA
:10034000880F991FFC01E859FF4FC591D491FC011A
:10035000EE58FF4FA591B491611109C09FB7F89471
:100360008881209582238883EC912E230BC06230F4
:1003700061F49FB7F8948881322F30958323888366
:10038000EC912E2B2C939FBF06C08FB7F894E88179
:100390002E2B28838FBFDF91CF9108950895CF92A0
:1003A000DF92EF92FF920F931F93CF93DF936C0135
:1003B0007A018B01C0E0D0E0CE15DF0581F0D801D5
:1003C0006D918D01D601ED91FC910190F081E02DB0
:1003D000C6010995892B11F02196EECF7E01C70148
:1003E000DF91CF911F910F91FF90EF90DF90CF9011
:1003F000089580E090E00895FC01538D448D252FF1
:1004000030E0842F90E0821B930B541710F0CF96AE
:10041000089501970895FC01918D828D981761F0E0
:10042000828DDF01A80FB11D5D968C91928D9F5F2B
:100430009F73928F90E008958FEF9FEF08952FB7ED
:10044000F89480918C0190918D01A0918E01B091D2
:100450008F012FBF8093980190939901A0939A01E7
:10046000B0939B0180E991E00E940B0297FF26C0A8
:100470002FB7F89480918C0190918D01A0918E01FD
:10048000B0918F012FBF40919801509199016091D7
:100490009A0170919B01841B950BA60BB70B4091A1
:1004A0009401509195016091960170919701841784
:1004B0009507A607B707B0F28FEF9FEF0895FC01ED
:1004C000918D828D981731F0828DE80FF11D858D09
:1004D00090E008958FEF9FEF0895FC01918D228D9C
:1004E000892F90E0805C9F4F821B91098F73992721
:1004F000089580E991E00E946D0221E0892B09F4C2
:1005000020E0822F0895FC01848DDF01A80FB11D2A
:10051000A35ABF4F2C91848D90E001968F73992739
:10052000848FA689B7892C93A089B1898C91837017
:1005300080648C93938D848D981306C00288F38910
:10054000E02D80818F7D80830895EF92FF920F933D
:100550001F93CF93DF93EC0181E0888F9B8D8C8D6F
:10056000981305C0E889F989808185FD26C0F62E9B
:100570000B8D10E00F5F1F4F0F731127E02E8C8D36
:10058000E8120CC00FB607FCFACFE889F989808120
:1005900085FFF5CFCE010E948302F1CF8B8DFE0146
:1005A000E80FF11DE35AFF4FF0829FB7F8940B8FCD
:1005B000EA89FB89808180620AC09FB7F894EE893E
:1005C000FF896083E889F9898081837080648083F2
:1005D0009FBF81E090E0DF91CF911F910F91FF903D
:1005E000EF900895CF93DF93EC01888D8823C9F0B5
:1005F000EA89FB89808185FD05C0A889B9898C912C
:1006000086FD0FC00FB607FCF5CF808185FFF2CFC6
:10061000A889B9898C9185FFEDCFCE010E94830214
:10062000E7CFDF91CF91089580E090E0892B29F00A
:100630000E94790281110C9400000895892B79F4AD
:100640001092800082E080938100109285001092C9
:100650008400B19A80916F00826080936F0008954A
:10066000CF93DF93009779F0FC0101900020E9F728
:100670003197AF01481B590BBC0180E991E00E9402
:10068000CF01EC0102C0C0E0D0E042E050E068E100
:1006900071E080E991E00E94CF018C0F9D1FDF91F6
:1006A000CF91089561E088E00E9463018091580233
:1006B0008C3008F043C061E089E00E949201809193
:1006C0005802E82FF0E09F01220F331FE20FF31FC3
:1006D000E35DFD4F9081907C996090831092590268
:1006E00010925A026CE00E94CC089CE0899FB001F5
:1006F000112440E050E09B01240F351FF901EE0F5B
:10070000FF1F2E0F3F1FF901E35DFD4F908196FD06
:1007100008C04F5F5F4F4C30510569F790E00E9471
:100720001E03E0915802F0E0CF01880F991FE80FF7
:10073000F91FE35DFD4F8081806480838BE191E050
:100740000C94300360E088E00E946301E09158025D
:10075000F0E0CF01880F991FE80FF91FE35DFD4F0F
:1007600080818F7B80838BE291E00C94300380E06A
:1007700090E00E948D008AE391E00C9430030E9487
:10078000C50AFC0124813581232B31F421E0611558
:100790007105A1F0FB0108C0FC0180819181611508
:1007A000710531F421E0FC018081882339F005C016
:1007B0000E94D30A21E0892B09F020E0822F0895BE
:1007C0000F931F93CF93DF93EC018881998100975A
:1007D00029F02A813B812617370788F48B016F5F48
:1007E0007F4F0E94FF09009761F0998388831B83E4
:1007F0000A832C813D81232B11F4FC01108281E0BE
:1008000001C080E0DF91CF911F910F910895EF9289
:10081000FF920F931F93CF93DF93EC017B018A012B
:10082000BA010E94E0032881398181110DC0211590
:10083000310519F0C9010E947609198218821D82BA
:100840001C821B821A8206C01D830C83B701C9015A
:100850000E94DC0ACE01DF91CF911F910F91FF9092
:10086000EF900895CF93DF93EC0140E050E06AE110
:1008700071E00E940704CE01DF91CF9108951F928D
:100880000F920FB60F9211242F933F938F939F9344
:10089000AF93BF9380918C0190918D01A0918E01B7
:1008A000B0918F0130918B0123E0230F2D3720F47D
:1008B0000196A11DB11D05C026E8230F0296A11DBA
:1008C000B11D20938B0180938C0190938D01A09397
:1008D0008E01B0938F018091870190918801A09142
:1008E0008901B0918A010196A11DB11D80938701F4
:1008F00090938801A0938901B0938A01BF91AF9131
:100900009F918F913F912F910F900FBE0F901F904D
:1009100018951F920F920FB60F9211242F933F93A9
:100920004F935F936F937F938F939F93AF93BF93F7
:10093000EF93FF9380E991E00E948302FF91EF9192
:10094000BF91AF919F918F917F916F915F914F91E7
:100950003F912F910F900FBE0F901F9018951F92EF
:100960000F920FB60F9211242F938F939F93EF93B3
:10097000FF93E091A001F091A1018081E091A60197
:10098000F091A70182FD12C090818091A9018F5F33
:100990008F732091AA01821751F0E091A901F0E034
:1009A000E057FE4F958F8093A90101C08081FF9190
:1009B000EF919F918F912F910F900FBE0F901F90ED
:1009C00018951F920F920FB60F9211242F933F93F9
:1009D0004F935F936F937F938F939F93AF93BF9347
:1009E000EF93FF938091860187FF05C010928500E9
:1009F000109284001BC020918601022E000C330B44
:100A00008091510290E02817390784F48091860183
:100A1000082E000C990BFC01EE0FFF1F8E0F9F1F7D
:100A2000FC01E35DFD4F808186FD15C0809186014C
:100A30008F5F8093860120918601022E000C330B7C
:100A40008091510290E028173907C4F48091860103
:100A50008C3064F113C080918601082E000C990B34
:100A6000FC01EE0FFF1F8E0F9F1FFC01E35DFD4F8A
:100A7000808160E08F730E946301D8CF80918400F1
:100A800090918500049680349C4918F480E49CE998
:100A900005C0809184009091850004969093890010
:100AA000809388008FEF809386013BC02091840063
:100AB0003091850080918601082E000C990BFC0175
:100AC000EE0FFF1F8E0F9F1FFC01E35DFD4F818125
:100AD0009281820F931F9093890080938800809168
:100AE0008601082E000C990BFC01EE0FFF1F8E0FE4
:100AF0009F1FFC01E35DFD4F808186FF12C0809146
:100B00008601082E000C990BFC01EE0FFF1F8E0FC3
:100B10009F1FFC01E35DFD4F808161E08F730E94A8
:100B20006301FF91EF91BF91AF919F918F917F9161
:100B30006F915F914F913F912F910F900FBE0F904A
:100B40001F901895109293011092920188EE93E0F5
:100B5000A0E0B0E08093940190939501A09396015A
:100B6000B09397018AE091E0909391018093900176
:100B700085EC90E090939D0180939C0184EC90E043
:100B800090939F0180939E0180EC90E09093A1014F
:100B90008093A00181EC90E09093A3018093A20147
:100BA00082EC90E09093A5018093A40186EC90E004
:100BB0009093A7018093A6011092A9011092AA0117
:100BC0001092AB011092AC01809151028C30A0F4D4
:100BD00091E0980F909351028093580290E0FC01AD
:100BE000EE0FFF1F8E0F9F1FFC01E35DFD4F88EB93
:100BF0009BE09283818303C08FEF80935802109211
:100C00005302109252021092550210925402109206
:100C100057021092560244E050E06BE471E082E526
:100C200092E00C940704CF93DF93CDB7DEB72897FB
:100C30000FB6F894DEBF0FBECDBF789484B5826046
:100C400084BD84B5816084BD85B5826085BD85B570
:100C5000816085BD80916E00816080936E001092EE
:100C60008100809181008260809381008091810069
:100C700081608093810080918000816080938000FA
:100C80008091B10084608093B1008091B000816058
:100C90008093B00080917A00846080937A00809184
:100CA0007A00826080937A0080917A0081608093DC
:100CB0007A0080917A00806880937A001092C10057
:100CC000E091A001F091A10182E08083E0919C017C
:100CD000F0919D011082E0919E01F0919F018FECB7
:100CE00080831092A801E091A401F091A50186E013
:100CF0008083E091A201F091A301808180618083D3
:100D0000E091A201F091A301808188608083E0914D
:100D1000A201F091A301808180688083E091A2010B
:100D2000F091A30180818F7D808380E591E00E9416
:100D3000300361E088E00E94920160E082E00E945E
:100D4000920160E083E00E949201809158028C3011
:100D500008F043C061E089E00E949201809158024E
:100D6000E82FF0E09F01220F331FE20FF31FE35D36
:100D7000FD4F9081907C996090831092590210925F
:100D80005A026CE00E94CC089CE0899FB0011124BB
:100D900040E050E09B01240F351FF901EE0FFF1FCB
:100DA0002E0F3F1FF901E35DFD4F908196FD08C0B6
:100DB0004F5F5F4F4C30510569F790E00E941E0372
:100DC000E0915802F0E0CF01880F991FE80FF91F5A
:100DD000E35DFD4F8081806480830E9452030E9406
:100DE000B70380E991E00E946D02181619060CF015
:100DF000CAC01A8219821C821B821E821D8240E098
:100E000050E06AE171E0CE0101960E9407040E9461
:100E10001F0297FD1BC08F8318860D811E810F5FF7
:100E20001F4FB801CE0101960E94E003882379F399
:100E300029813A818D819E81BE01695F7F4F820F3A
:100E4000931F0E94DC0A1E830D83E1CF8091520222
:100E500090915302009741F069817A816115710583
:100E600009F0DBC00E94760989819A819093530230
:100E7000809352028B819C819093550280935402FF
:100E80008D819E8190935702809356021A82198217
:100E900089819A810E947609C0905202D0905302B3
:100EA000C114D10409F445C00091560210915702B3
:100EB00001151105F1F176015701EFEFAE1ABE0AE7
:100EC000F7018081082E000C990B0E942608892BBF
:100ED00011F07501F1CF015011090C0D1D1DF80124
:100EE0008081082E000C990B0E942608892B31F076
:100EF0000E151F0518F001501109F1CFA8014F5F21
:100F00005F4F4E195F095093570240935602CE141B
:100F1000DF0420F4B701C6010E94CA0AE091520220
:100F2000F09153028091560290915702E80FF91FF9
:100F300010821A8219821C821B821E821D8260917D
:100F40005202709153026115710541F040915602B1
:100F500050915702CE0101960E9407046BE471E0A4
:100F6000CE0101960E94C103882351F182E00E94C4
:100F70003A01019729F10E9452030E94B703898127
:100F80009A810E9476096BE471E082E592E00E940A
:100F9000C103882329F082E00E943A01019779F188
:100FA0006EE671E082E592E00E94C103882329F099
:100FB00083E00E943A01019749F10E94140311CF86
:100FC0006EE671E0CE0101960E94C103882381F094
:100FD00083E00E943A01019759F00E94520384EB8A
:100FE00090E00E948D0084E791E00E943003C7CF1B
:100FF000CE0101960E9432040E94A203C0CF82E576
:1010000092E00E9432040E94A203CACF82E592E0DD
:101010000E9432040E94A203D0CF4091540250910A
:1010200055022D813E814217530708F41BCF0E94C1
:10103000DC0A8D819E81909357028093560228CFBF
:1010400080915202909153020C94760991110C9464
:101050002F08803219F089508550C8F708959927D4
:1010600088270895052E97FB1EF400940E944908D6
:1010700057FD07D00E949B0807FC03D04EF40C9448
:10108000490850954095309521953F4F4F4F5F4F00
:10109000089590958095709561957F4F8F4F9F4FE4
:1010A00008950E94BD08A59F900DB49F900DA49F28
:1010B000800D911D11240895B7FF0C9451080E94D2
:1010C0005108821B930B08952F923F924F925F928B
:1010D0006F927F928F929F92AF92BF92CF92DF9248
:1010E000EF92FF920F931F93CF93DF93CDB7DEB7AD
:1010F000CA1BDB0B0FB6F894DEBF0FBECDBF099441
:101100002A88398848885F846E847D848C849B8497
:10111000AA84B984C884DF80EE80FD800C811B81A5
:10112000AA81B981CE0FD11D0FB6F894DEBF0FBED4
:10113000CDBFED010895A1E21A2EAA1BBB1BFD0134
:101140000DC0AA1FBB1FEE1FFF1FA217B307E407A6
:10115000F50720F0A21BB30BE40BF50B661F771FFE
:10116000881F991F1A9469F76095709580959095DE
:101170009B01AC01BD01CF010895A29FB001B39FB7
:10118000C001A39F700D811D1124911DB29F700D90
:10119000811D1124911D0895991B79E004C0991FA8
:1011A000961708F0961B881F7A95C9F780950895C1
:1011B000EE0FFF1F0590F491E02D09940F931F93FC
:1011C000CF93DF938230910510F482E090E0E091BC
:1011D0005D02F0915E0220E030E0A0E0B0E03097E8
:1011E00019F1408151810281138148175907C8F0D4
:1011F0008417950769F4109731F012960C931297A3
:1012000013961C9327C000935D0210935E0222C0C8
:101210002115310519F04217530718F49A01BD0141
:10122000EF01DF01F801DBCF21153105F9F0281BB3
:10123000390B2430310580F48A819B816115710559
:1012400021F0FB019383828304C090935E0280931C
:101250005D02FE01329644C0FE01E20FF31F81934E
:10126000919322503109398328833AC020915B023F
:1012700030915C02232B41F4209102013091030153
:1012800030935C0220935B022091000130910101B8
:101290002115310541F42DB73EB74091040150911D
:1012A0000501241B350BE0915B02F0915C02E21713
:1012B000F307A0F42E1B3F0B2817390778F0AC0179
:1012C0004E5F5F4F2417350748F04E0F5F1F509356
:1012D0005C0240935B028193919302C0E0E0F0E0F6
:1012E000CF01DF91CF911F910F910895CF93DF939D
:1012F000009709F481C0FC01329713821282A091F9
:101300005D02B0915E02109781F420813181820FDD
:10131000931F20915B0230915C022817390751F529
:10132000F0935C02E0935B0267C0ED0120E030E0E7
:10133000CE17DF0740F44A815B819E0141155105BC
:10134000F1F0EA01F5CFD383C28340815181840F4C
:10135000951FC817D90759F488819981840F951F63
:101360000296918380838A819B8193838283211556
:10137000310529F4F0935E02E0935D023DC0E9017E
:10138000FB83EA8349915991C40FD51FEC17FD07E0
:1013900061F480819181840F951F0296E901998300
:1013A0008883828193819B838A83E0E0F0E01296B8
:1013B0008D919C911397009719F0FD01DC01F7CFF7
:1013C0008D919C9111979D012E5F3F4F820F931F2E
:1013D00020915B0230915C022817390769F430973D
:1013E00029F410925E0210925D0202C013821282F2
:1013F000B0935C02A0935B02DF91CF910895A0E0CF
:10140000B0E0E5E0FAE00C946808EC01009721F404
:10141000CB010E94DE08B4C0FC01E60FF71F9C015F
:1014200022503109E217F30708F4A8C0D9010D9141
:101430001C91119706171707B0F00530110508F435
:101440009BC0C80104978617970708F495C00250FF
:101450001109061B170B019311936D937C93CF0118
:101460000E94760989C05B01A01AB10A4C01800E66
:10147000911EA0915D02B0915E02612C712CE12C55
:10148000F12C109709F446C08D919C911197A815E5
:10149000B905B1F56C0142E0C40ED11CCA14DB04DD
:1014A00078F14C018A189B08640142E0C40ED11CFB
:1014B0001296BC9012971396AC91B5E0CB16D1045E
:1014C00040F0B282A38391828082D9016D937C9394
:1014D00009C00E5F1F4F800F911FF9019183808318
:1014E000EB2DFA2FE114F10431F0D7011396FC93A0
:1014F000EE93129741C0F0935E02E0935D023CC010
:101500006816790608F43C017D0112960D90BC9195
:10151000A02DB7CF80915B0290915C02881699064E
:10152000E1F466167706C8F48091000190910101FC
:10153000009741F48DB79EB7409104015091050189
:10154000841B950BE817F907C8F4F0935C02E0934D
:101550005B02F901718360830FC0CB010E94DE083A
:101560007C01009759F0A801BE010E94CA0ACE0171
:101570000E947609C70104C0CE0102C080E090E05D
:10158000CDB7DEB7EEE00C94840881E090E0F894EB
:101590000C94E30AFB01DC0102C001900D92415062
:1015A0005040D8F70895FB01DC018D91019080191E
:1015B0000110D9F3990B0895FB01DC0101900D9204
:1015C0000020E1F7089510E0C2E6D0E004C0FE017B
:1015D0000E94D8082196C336D107C9F7F894FFCFE7
:1015E00000005F02800000000000A502CF01FC01A6
:1015F000F2026D020B025F020D0A004D6F746F72F2
:1016000020656E63656E6469646F004D6F746F7200
:1016100020646574656E69646F0041627269656E0D
:10162000646F2076616C76756C61006F70656E001A
:10163000496E696369616E646F20636F6E74726F67
:101640006C2064652076C3A16C76756C6100636C58
:101650006F73650043657272616E646F2076616CB2
:0616600076756C610000CC
:00000001FF
